:020000020000FC
:0200000045C0F9
:10008C000FEF0DBF00E10EBF222404D027D047D0C4
:10009C0084D0FFCFAF93BF93CF93DF93EF93FF93B6
:1000AC003F924F9222248894A0E1B1E010E0C2E18B
:1000BC00D1E0E0E2F1E03D904990340C31923C907B
:1000CC004880431C4192121D10834F903F90FF912A
:1000DC00EF91DF91CF91BF91AF9108954F923F92E5
:1000EC00FF93EF93DF93CF93BF93AF932224889426
:1000FC00A0E5B1E0C2E5D1E0E0E6F1E03D90499049
:10010C00341831923C90488034083082AF91BF91C2
:10011C00CF91DF91EF91FF913F904F9008953F92D7
:10012C004F921F920F922F92BF93AF93DF93CF9367
:10013C00FF93EF931F932F93222422248894C3E3DD
:10014C00D1E0E0E4F1E013E0A0E3B1E023E03D9086
:10015C004880349C31904190030C141C3190321C1B
:10016C0044244080421C4082329212920292319678
:10017C002A9569F73297219613971A9529F72F919B
:10018C001F91EF91FF91CF91DF91AF91BF912F9084
:10019C000F901F904F903F900895EAE8F2E0A0E591
:1001AC00B1E005910D9304910C93ECE8F2E0C2E5FB
:1001BC00D1E0059109930491088390DF8894E0E6DF
:1001CC00F1E0A0E1B1E001910D9300810C93EEE818
:1001DC00F2E0C2E1D1E005910993049108835ADF62
:1001EC008894E0E2F1E0A0E3B1E001910D9301917C
:1001FC000D9301910C93E0E2F1E0C3E3D1E00191A6
:10020C000993019109930081088389DF08953F9236
:10021C004F921F920F922F92BF93AF93DF93CF9376
:10022C00FF93EF931F932F932224C3E0D1E0E6E0DA
:10023C00F1E012E0A0E0B1E022E03D904880349C77
:10024C0031904190030C141C3080321C308212927D
:10025C00029231962A9589F7319721961A9551F782
:10026C002F911F91EF91FF91CF91DF91AF91BF91A2
:10027C002F900F901F904F903F900895089551FD2F
:04028C00FF1EFFFF53
:00000001FF
