:020000020000FC
:0200000045C0F9
:1000040067D0189572D018957ED0189584D018951D
:10008C0000E10EBF0FEF0DBF0FEF07BB00E001BB90
:10009C000FE002BB0AEA00936A0009E603BF05BD44
:1000AC000FE009BF00E608BB08B3102F00E0012BDE
:1000BC0008BB789408B311B732D0007F1F70012BA6
:1000CC0008BB0FEF08BFF6CF0F931F3F31F011B7EE
:1000DC0001E125D0100F11BF13BD0F910FEF08BF19
:1000EC0008950F9311B7103031F011B701E117D00B
:1000FC00101B11BF13BD0F910FEF08BF089511B75F
:10010C000ED010E011BF13BD0FEF08BF089511B74B
:10011C0006D01FEF11BF13BD0FEF08BF08952F932B
:10012C003F934F9324E64CE739E83A95F1F74A951B
:0E013C00D9F72A95C1F74F913F912F91089561
:00000001FF
