:020000020000FC
:0200000045C0F9
:10008C0000E10EBF0FEF0DBF0FEF07BB00E001BB90
:10009C000FEF02BB02E000939B0003E0009398007B
:1000AC0000E40093990008E000939A000EE000939E
:1000BC009D0000B318BB037F023F19F410EA1AD05D
:1000CC00F8CF013F19F410E91AD0F3CF033E19F41D
:1000DC0010EB1AD0EECF033719F410E81AD0E9CF91
:1000EC00033D19F418EC1AD0E4CF033B11F718EFC9
:1000FC001AD0DFCF18E81CD010EA1AD0089518E8EF
:10010C0017D010E915D0089518E812D010EB10D0C4
:10011C00089518E80DD010E80BD0089518E808D011
:10012C0018EC06D0089518E803D018EF01D0089504
:0E013C0000919B0005FFFCCF10939C000895DE
:00000001FF
