:020000020000FC
:0200000045C0F9
:080004006AD0189581D018950F
:0400780072D0189595
:10008C0000E10EBF0FEF0DBF0FEF07BB00E001BB90
:10009C0003E002BB02E000939B0003E00093980096
:1000AC0000E40093990008E900939A000EE0009395
:1000BC009D000AE200936A0003E009BF0FEF08BF3E
:1000CC0010E000E6502F052B08BB7894FFCF0F9360
:1000DC002F930FB70F9358B300E008BB24E629D039
:1000EC0000E408BB24E625D000E608BB22D058BBB0
:1000FC000FEF08BF0F910FBF2F910F9178940895B8
:10010C000F932F930FB70F9358B300E008BB24E65F
:10011C0010D000E208BB24E60CD000E608BB09D0E6
:10012C0058BB0FEF08BF0F910FBF2F910F91789411
:10013C0008952F933F934F9324E640EE3DEE3A956E
:10014C00F1F74A95D9F72A95C1F74F913F912F9125
:10015C00089558B300919C000D38F9F00535D1F491
:10016C0008E000939A0000919B000530B9F300E978
:10017C0008BBDFDFDEDFDDDFDCDFDBDF1395133019
:10018C0011F41330F1F30FEF08BF00E900939A005C
:10019C000C94D00058BB0C940B01CBDF70919C00DD
:1001AC007D38C1F3783F61F0783CD9F0703BE9F0D1
:1001BC007038F9F0703A09F1703919F10C940B019F
:1001CC0008E000939A0000919B000530C9F305E507
:1001DC0008BB00939C00ADDF08E900939A000C94D7
:1001EC000B0170E978BB0C940B0170E678BB0C9496
:1001FC000B0170E078BB0C940B0170E478BB0C9491
:10020C000B0170E278BB0C940B010FEF08BF089543
:00000001FF
