:020000020000FC
:0200000045C0F9
:080004005AD018956CD0189534
:10008C0000E10EBF0FEF0DBF00EF07BB00E008BB98
:10009C0000E001BB03E002BB0AE000936A0003E04E
:1000AC0009BF0FEF08BF789400E608BBFDCF0F9394
:1000BC001F930FB70F9300E008BB14E620D000E2AB
:1000CC0008BB14E61CD00FEF08BF0F910FBF1F9198
:1000DC000F91789408950F931F930FB70F9300E02F
:1000EC0008BB14E60CD000E408BB14E608D00FEFF4
:1000FC0008BF0F910FBF1F910F917894089530EEA8
:10010C002DEE2A95F1F73A95D9F71A95C1F708957E
:00000001FF
